{
  "address": "0x7a1Bf79FeA06Da1C7bb03Bbc729F1360ACa2080f",
  "abi": [
    {
      "inputs": [
        {
          "internalType": "string",
          "name": "uri",
          "type": "string"
        }
      ],
      "stateMutability": "nonpayable",
      "type": "constructor"
    },
    {
      "anonymous": false,
      "inputs": [
        {
          "indexed": true,
          "internalType": "address",
          "name": "owner",
          "type": "address"
        },
        {
          "indexed": true,
          "internalType": "address",
          "name": "approved",
          "type": "address"
        },
        {
          "indexed": true,
          "internalType": "uint256",
          "name": "tokenId",
          "type": "uint256"
        }
      ],
      "name": "Approval",
      "type": "event"
    },
    {
      "anonymous": false,
      "inputs": [
        {
          "indexed": true,
          "internalType": "address",
          "name": "owner",
          "type": "address"
        },
        {
          "indexed": true,
          "internalType": "address",
          "name": "operator",
          "type": "address"
        },
        {
          "indexed": false,
          "internalType": "bool",
          "name": "approved",
          "type": "bool"
        }
      ],
      "name": "ApprovalForAll",
      "type": "event"
    },
    {
      "anonymous": false,
      "inputs": [
        {
          "indexed": true,
          "internalType": "bytes32",
          "name": "role",
          "type": "bytes32"
        },
        {
          "indexed": true,
          "internalType": "bytes32",
          "name": "previousAdminRole",
          "type": "bytes32"
        },
        {
          "indexed": true,
          "internalType": "bytes32",
          "name": "newAdminRole",
          "type": "bytes32"
        }
      ],
      "name": "RoleAdminChanged",
      "type": "event"
    },
    {
      "anonymous": false,
      "inputs": [
        {
          "indexed": true,
          "internalType": "bytes32",
          "name": "role",
          "type": "bytes32"
        },
        {
          "indexed": true,
          "internalType": "address",
          "name": "account",
          "type": "address"
        },
        {
          "indexed": true,
          "internalType": "address",
          "name": "sender",
          "type": "address"
        }
      ],
      "name": "RoleGranted",
      "type": "event"
    },
    {
      "anonymous": false,
      "inputs": [
        {
          "indexed": true,
          "internalType": "bytes32",
          "name": "role",
          "type": "bytes32"
        },
        {
          "indexed": true,
          "internalType": "address",
          "name": "account",
          "type": "address"
        },
        {
          "indexed": true,
          "internalType": "address",
          "name": "sender",
          "type": "address"
        }
      ],
      "name": "RoleRevoked",
      "type": "event"
    },
    {
      "anonymous": false,
      "inputs": [
        {
          "indexed": true,
          "internalType": "address",
          "name": "from",
          "type": "address"
        },
        {
          "indexed": true,
          "internalType": "address",
          "name": "to",
          "type": "address"
        },
        {
          "indexed": true,
          "internalType": "uint256",
          "name": "tokenId",
          "type": "uint256"
        }
      ],
      "name": "Transfer",
      "type": "event"
    },
    {
      "inputs": [],
      "name": "AQUATIQUE_KIND",
      "outputs": [
        {
          "internalType": "uint256",
          "name": "",
          "type": "uint256"
        }
      ],
      "stateMutability": "view",
      "type": "function"
    },
    {
      "inputs": [],
      "name": "DEFAULT_ADMIN_ROLE",
      "outputs": [
        {
          "internalType": "bytes32",
          "name": "",
          "type": "bytes32"
        }
      ],
      "stateMutability": "view",
      "type": "function"
    },
    {
      "inputs": [],
      "name": "DRUID_KIND",
      "outputs": [
        {
          "internalType": "uint256",
          "name": "",
          "type": "uint256"
        }
      ],
      "stateMutability": "view",
      "type": "function"
    },
    {
      "inputs": [],
      "name": "HERMES_KIND",
      "outputs": [
        {
          "internalType": "uint256",
          "name": "",
          "type": "uint256"
        }
      ],
      "stateMutability": "view",
      "type": "function"
    },
    {
      "inputs": [],
      "name": "ILLUMINATOR_KIND",
      "outputs": [
        {
          "internalType": "uint256",
          "name": "",
          "type": "uint256"
        }
      ],
      "stateMutability": "view",
      "type": "function"
    },
    {
      "inputs": [],
      "name": "MINTER_ROLE",
      "outputs": [
        {
          "internalType": "bytes32",
          "name": "",
          "type": "bytes32"
        }
      ],
      "stateMutability": "view",
      "type": "function"
    },
    {
      "inputs": [
        {
          "internalType": "address",
          "name": "to",
          "type": "address"
        },
        {
          "internalType": "uint256",
          "name": "tokenId",
          "type": "uint256"
        }
      ],
      "name": "approve",
      "outputs": [],
      "stateMutability": "nonpayable",
      "type": "function"
    },
    {
      "inputs": [
        {
          "internalType": "address",
          "name": "owner",
          "type": "address"
        }
      ],
      "name": "balanceOf",
      "outputs": [
        {
          "internalType": "uint256",
          "name": "",
          "type": "uint256"
        }
      ],
      "stateMutability": "view",
      "type": "function"
    },
    {
      "inputs": [
        {
          "internalType": "uint256",
          "name": "tokenId",
          "type": "uint256"
        }
      ],
      "name": "getApproved",
      "outputs": [
        {
          "internalType": "address",
          "name": "",
          "type": "address"
        }
      ],
      "stateMutability": "view",
      "type": "function"
    },
    {
      "inputs": [
        {
          "internalType": "uint256",
          "name": "id",
          "type": "uint256"
        }
      ],
      "name": "getKind",
      "outputs": [
        {
          "internalType": "uint256",
          "name": "",
          "type": "uint256"
        }
      ],
      "stateMutability": "pure",
      "type": "function"
    },
    {
      "inputs": [
        {
          "internalType": "uint256",
          "name": "kind",
          "type": "uint256"
        }
      ],
      "name": "getNFTKindSupply",
      "outputs": [
        {
          "internalType": "uint256",
          "name": "",
          "type": "uint256"
        }
      ],
      "stateMutability": "view",
      "type": "function"
    },
    {
      "inputs": [
        {
          "internalType": "bytes32",
          "name": "role",
          "type": "bytes32"
        }
      ],
      "name": "getRoleAdmin",
      "outputs": [
        {
          "internalType": "bytes32",
          "name": "",
          "type": "bytes32"
        }
      ],
      "stateMutability": "view",
      "type": "function"
    },
    {
      "inputs": [
        {
          "internalType": "bytes32",
          "name": "role",
          "type": "bytes32"
        },
        {
          "internalType": "address",
          "name": "account",
          "type": "address"
        }
      ],
      "name": "grantRole",
      "outputs": [],
      "stateMutability": "nonpayable",
      "type": "function"
    },
    {
      "inputs": [
        {
          "internalType": "bytes32",
          "name": "role",
          "type": "bytes32"
        },
        {
          "internalType": "address",
          "name": "account",
          "type": "address"
        }
      ],
      "name": "hasRole",
      "outputs": [
        {
          "internalType": "bool",
          "name": "",
          "type": "bool"
        }
      ],
      "stateMutability": "view",
      "type": "function"
    },
    {
      "inputs": [
        {
          "internalType": "address",
          "name": "owner",
          "type": "address"
        },
        {
          "internalType": "address",
          "name": "operator",
          "type": "address"
        }
      ],
      "name": "isApprovedForAll",
      "outputs": [
        {
          "internalType": "bool",
          "name": "",
          "type": "bool"
        }
      ],
      "stateMutability": "view",
      "type": "function"
    },
    {
      "inputs": [
        {
          "internalType": "uint256",
          "name": "id",
          "type": "uint256"
        },
        {
          "internalType": "uint256",
          "name": "kind",
          "type": "uint256"
        }
      ],
      "name": "isKind",
      "outputs": [
        {
          "internalType": "bool",
          "name": "",
          "type": "bool"
        }
      ],
      "stateMutability": "pure",
      "type": "function"
    },
    {
      "inputs": [
        {
          "internalType": "address",
          "name": "to",
          "type": "address"
        },
        {
          "internalType": "uint256",
          "name": "kind",
          "type": "uint256"
        }
      ],
      "name": "mintKind",
      "outputs": [],
      "stateMutability": "nonpayable",
      "type": "function"
    },
    {
      "inputs": [],
      "name": "name",
      "outputs": [
        {
          "internalType": "string",
          "name": "",
          "type": "string"
        }
      ],
      "stateMutability": "view",
      "type": "function"
    },
    {
      "inputs": [
        {
          "internalType": "uint256",
          "name": "tokenId",
          "type": "uint256"
        }
      ],
      "name": "ownerOf",
      "outputs": [
        {
          "internalType": "address",
          "name": "",
          "type": "address"
        }
      ],
      "stateMutability": "view",
      "type": "function"
    },
    {
      "inputs": [
        {
          "internalType": "bytes32",
          "name": "role",
          "type": "bytes32"
        },
        {
          "internalType": "address",
          "name": "account",
          "type": "address"
        }
      ],
      "name": "renounceRole",
      "outputs": [],
      "stateMutability": "nonpayable",
      "type": "function"
    },
    {
      "inputs": [
        {
          "internalType": "bytes32",
          "name": "role",
          "type": "bytes32"
        },
        {
          "internalType": "address",
          "name": "account",
          "type": "address"
        }
      ],
      "name": "revokeRole",
      "outputs": [],
      "stateMutability": "nonpayable",
      "type": "function"
    },
    {
      "inputs": [
        {
          "internalType": "address",
          "name": "from",
          "type": "address"
        },
        {
          "internalType": "address",
          "name": "to",
          "type": "address"
        },
        {
          "internalType": "uint256",
          "name": "tokenId",
          "type": "uint256"
        }
      ],
      "name": "safeTransferFrom",
      "outputs": [],
      "stateMutability": "nonpayable",
      "type": "function"
    },
    {
      "inputs": [
        {
          "internalType": "address",
          "name": "from",
          "type": "address"
        },
        {
          "internalType": "address",
          "name": "to",
          "type": "address"
        },
        {
          "internalType": "uint256",
          "name": "tokenId",
          "type": "uint256"
        },
        {
          "internalType": "bytes",
          "name": "data",
          "type": "bytes"
        }
      ],
      "name": "safeTransferFrom",
      "outputs": [],
      "stateMutability": "nonpayable",
      "type": "function"
    },
    {
      "inputs": [
        {
          "internalType": "address",
          "name": "operator",
          "type": "address"
        },
        {
          "internalType": "bool",
          "name": "approved",
          "type": "bool"
        }
      ],
      "name": "setApprovalForAll",
      "outputs": [],
      "stateMutability": "nonpayable",
      "type": "function"
    },
    {
      "inputs": [
        {
          "internalType": "string",
          "name": "newUri",
          "type": "string"
        }
      ],
      "name": "setBaseURI",
      "outputs": [],
      "stateMutability": "nonpayable",
      "type": "function"
    },
    {
      "inputs": [
        {
          "internalType": "bytes4",
          "name": "interfaceId",
          "type": "bytes4"
        }
      ],
      "name": "supportsInterface",
      "outputs": [
        {
          "internalType": "bool",
          "name": "",
          "type": "bool"
        }
      ],
      "stateMutability": "view",
      "type": "function"
    },
    {
      "inputs": [],
      "name": "symbol",
      "outputs": [
        {
          "internalType": "string",
          "name": "",
          "type": "string"
        }
      ],
      "stateMutability": "view",
      "type": "function"
    },
    {
      "inputs": [
        {
          "internalType": "uint256",
          "name": "tokenId",
          "type": "uint256"
        }
      ],
      "name": "tokenURI",
      "outputs": [
        {
          "internalType": "string",
          "name": "",
          "type": "string"
        }
      ],
      "stateMutability": "view",
      "type": "function"
    },
    {
      "inputs": [
        {
          "internalType": "address",
          "name": "from",
          "type": "address"
        },
        {
          "internalType": "address",
          "name": "to",
          "type": "address"
        },
        {
          "internalType": "uint256",
          "name": "tokenId",
          "type": "uint256"
        }
      ],
      "name": "transferFrom",
      "outputs": [],
      "stateMutability": "nonpayable",
      "type": "function"
    }
  ],
  "transactionHash": "0x1717496a52fc47078dff6e15a6d0660422e33c31f2c98bd6b106a9644f1c1a3f",
  "args": [
    "https://api-scaley-valley.definme.com/metadata"
  ],
  "numDeployments": 1,
  "solcInputHash": "e3a1e79bd3c5b44f36e46a399b0a43a2",
  "bytecode": "0x60806040523480156200001157600080fd5b506040516200418338038062004183833981810160405281019062000037919062000455565b6040518060400160405280601681526020017f5363616c657956616c6c6579436f6c6c656374696f6e000000000000000000008152506040518060400160405280600381526020017f53564300000000000000000000000000000000000000000000000000000000008152508160009081620000b49190620006f1565b508060019081620000c69190620006f1565b5050508060089081620000da9190620006f1565b50620000ff6000801b620000f36200014760201b60201c565b6200014f60201b60201c565b620001407f9f2df0fed2c77648de5860a4cc508cd0818c85b8b8a1ab4ceeef8d981c8956a6620001346200014760201b60201c565b6200014f60201b60201c565b50620007d8565b600033905090565b6200016182826200016560201b60201c565b5050565b6200017782826200025760201b60201c565b620002535760016006600084815260200190815260200160002060000160008373ffffffffffffffffffffffffffffffffffffffff1673ffffffffffffffffffffffffffffffffffffffff16815260200190815260200160002060006101000a81548160ff021916908315150217905550620001f86200014760201b60201c565b73ffffffffffffffffffffffffffffffffffffffff168173ffffffffffffffffffffffffffffffffffffffff16837f2f8788117e7eff1d82e926ec794901d17c78024a50270940304540a733656f0d60405160405180910390a45b5050565b60006006600084815260200190815260200160002060000160008373ffffffffffffffffffffffffffffffffffffffff1673ffffffffffffffffffffffffffffffffffffffff16815260200190815260200160002060009054906101000a900460ff16905092915050565b6000604051905090565b600080fd5b600080fd5b600080fd5b600080fd5b6000601f19601f8301169050919050565b7f4e487b7100000000000000000000000000000000000000000000000000000000600052604160045260246000fd5b6200032b82620002e0565b810181811067ffffffffffffffff821117156200034d576200034c620002f1565b5b80604052505050565b600062000362620002c2565b905062000370828262000320565b919050565b600067ffffffffffffffff821115620003935762000392620002f1565b5b6200039e82620002e0565b9050602081019050919050565b60005b83811015620003cb578082015181840152602081019050620003ae565b60008484015250505050565b6000620003ee620003e88462000375565b62000356565b9050828152602081018484840111156200040d576200040c620002db565b5b6200041a848285620003ab565b509392505050565b600082601f8301126200043a5762000439620002d6565b5b81516200044c848260208601620003d7565b91505092915050565b6000602082840312156200046e576200046d620002cc565b5b600082015167ffffffffffffffff8111156200048f576200048e620002d1565b5b6200049d8482850162000422565b91505092915050565b600081519050919050565b7f4e487b7100000000000000000000000000000000000000000000000000000000600052602260045260246000fd5b60006002820490506001821680620004f957607f821691505b6020821081036200050f576200050e620004b1565b5b50919050565b60008190508160005260206000209050919050565b60006020601f8301049050919050565b600082821b905092915050565b600060088302620005797fffffffffffffffffffffffffffffffffffffffffffffffffffffffffffffffff826200053a565b6200058586836200053a565b95508019841693508086168417925050509392505050565b6000819050919050565b6000819050919050565b6000620005d2620005cc620005c6846200059d565b620005a7565b6200059d565b9050919050565b6000819050919050565b620005ee83620005b1565b62000606620005fd82620005d9565b84845462000547565b825550505050565b600090565b6200061d6200060e565b6200062a818484620005e3565b505050565b5b8181101562000652576200064660008262000613565b60018101905062000630565b5050565b601f821115620006a1576200066b8162000515565b62000676846200052a565b8101602085101562000686578190505b6200069e62000695856200052a565b8301826200062f565b50505b505050565b600082821c905092915050565b6000620006c660001984600802620006a6565b1980831691505092915050565b6000620006e18383620006b3565b9150826002028217905092915050565b620006fc82620004a6565b67ffffffffffffffff811115620007185762000717620002f1565b5b620007248254620004e0565b6200073182828562000656565b600060209050601f83116001811462000769576000841562000754578287015190505b620007608582620006d3565b865550620007d0565b601f198416620007798662000515565b60005b82811015620007a3578489015182556001820191506020850194506020810190506200077c565b86831015620007c35784890151620007bf601f891682620006b3565b8355505b6001600288020188555050505b505050505050565b61399b80620007e86000396000f3fe608060405234801561001057600080fd5b50600436106101cf5760003560e01c80636352211e11610104578063a77d8c52116100a2578063d547741f11610071578063d547741f14610566578063e985e9c514610582578063eda67795146105b2578063f81d9e9d146105ce576101cf565b8063a77d8c52146104cc578063b88d4fde146104fc578063c87b56dd14610518578063d539139314610548576101cf565b806391d14854116100de57806391d148541461044457806395d89b4114610474578063a217fddf14610492578063a22cb465146104b0576101cf565b80636352211e146103b45780636ca8fede146103e457806370a0823114610414576101cf565b80632f2ff15d116101715780633b96b7871161014b5780633b96b7871461032e57806342842e0e1461034c578063492e17fe1461036857806355f804b314610398576101cf565b80632f2ff15d146102d857806336568abe146102f45780633a8aebc214610310576101cf565b8063095ea7b3116101ad578063095ea7b31461025257806316f674c51461026e57806323b872dd1461028c578063248a9ca3146102a8576101cf565b806301ffc9a7146101d457806306fdde0314610204578063081812fc14610222575b600080fd5b6101ee60048036038101906101e99190612387565b6105ec565b6040516101fb91906123cf565b60405180910390f35b61020c6105fe565b604051610219919061247a565b60405180910390f35b61023c600480360381019061023791906124d2565b610690565b6040516102499190612540565b60405180910390f35b61026c60048036038101906102679190612587565b6106d6565b005b6102766107ed565b60405161028391906125d6565b60405180910390f35b6102a660048036038101906102a191906125f1565b6107f2565b005b6102c260048036038101906102bd919061267a565b610852565b6040516102cf91906126b6565b60405180910390f35b6102f260048036038101906102ed91906126d1565b610872565b005b61030e600480360381019061030991906126d1565b610893565b005b610318610916565b60405161032591906125d6565b60405180910390f35b61033661091b565b60405161034391906125d6565b60405180910390f35b610366600480360381019061036191906125f1565b610920565b005b610382600480360381019061037d9190612711565b610940565b60405161038f91906123cf565b60405180910390f35b6103b260048036038101906103ad9190612886565b610955565b005b6103ce60048036038101906103c991906124d2565b6109bb565b6040516103db9190612540565b60405180910390f35b6103fe60048036038101906103f991906124d2565b610a41565b60405161040b91906125d6565b60405180910390f35b61042e600480360381019061042991906128cf565b610a55565b60405161043b91906125d6565b60405180910390f35b61045e600480360381019061045991906126d1565b610b0c565b60405161046b91906123cf565b60405180910390f35b61047c610b77565b604051610489919061247a565b60405180910390f35b61049a610c09565b6040516104a791906126b6565b60405180910390f35b6104ca60048036038101906104c59190612928565b610c10565b005b6104e660048036038101906104e191906124d2565b610c26565b6040516104f391906125d6565b60405180910390f35b61051660048036038101906105119190612a09565b610c43565b005b610532600480360381019061052d91906124d2565b610ca5565b60405161053f919061247a565b60405180910390f35b610550610d0d565b60405161055d91906126b6565b60405180910390f35b610580600480360381019061057b91906126d1565b610d31565b005b61059c60048036038101906105979190612a8c565b610d52565b6040516105a991906123cf565b60405180910390f35b6105cc60048036038101906105c79190612587565b610de6565b005b6105d6610eac565b6040516105e391906125d6565b60405180910390f35b60006105f782610eb1565b9050919050565b60606000805461060d90612afb565b80601f016020809104026020016040519081016040528092919081815260200182805461063990612afb565b80156106865780601f1061065b57610100808354040283529160200191610686565b820191906000526020600020905b81548152906001019060200180831161066957829003601f168201915b5050505050905090565b600061069b82610f2b565b6004600083815260200190815260200160002060009054906101000a900473ffffffffffffffffffffffffffffffffffffffff169050919050565b60006106e1826109bb565b90508073ffffffffffffffffffffffffffffffffffffffff168373ffffffffffffffffffffffffffffffffffffffff1603610751576040517f08c379a000000000000000000000000000000000000000000000000000000000815260040161074890612b9e565b60405180910390fd5b8073ffffffffffffffffffffffffffffffffffffffff16610770610f76565b73ffffffffffffffffffffffffffffffffffffffff16148061079f575061079e81610799610f76565b610d52565b5b6107de576040517f08c379a00000000000000000000000000000000000000000000000000000000081526004016107d590612c30565b60405180910390fd5b6107e88383610f7e565b505050565b600281565b6108036107fd610f76565b82611037565b610842576040517f08c379a000000000000000000000000000000000000000000000000000000000815260040161083990612cc2565b60405180910390fd5b61084d8383836110cc565b505050565b600060066000838152602001908152602001600020600101549050919050565b61087b82610852565b610884816113c5565b61088e83836113d9565b505050565b61089b610f76565b73ffffffffffffffffffffffffffffffffffffffff168173ffffffffffffffffffffffffffffffffffffffff1614610908576040517f08c379a00000000000000000000000000000000000000000000000000000000081526004016108ff90612d54565b60405180910390fd5b61091282826114ba565b5050565b600381565b600081565b61093b83838360405180602001604052806000815250610c43565b505050565b60008161094c84610a41565b14905092915050565b6109696000801b610964610f76565b610b0c565b6109a8576040517f08c379a000000000000000000000000000000000000000000000000000000000815260040161099f90612dc0565b60405180910390fd5b80600890816109b79190612f8c565b5050565b6000806109c78361159c565b9050600073ffffffffffffffffffffffffffffffffffffffff168173ffffffffffffffffffffffffffffffffffffffff1603610a38576040517f08c379a0000000000000000000000000000000000000000000000000000000008152600401610a2f906130aa565b60405180910390fd5b80915050919050565b600060108263ffff000016901c9050919050565b60008073ffffffffffffffffffffffffffffffffffffffff168273ffffffffffffffffffffffffffffffffffffffff1603610ac5576040517f08c379a0000000000000000000000000000000000000000000000000000000008152600401610abc9061313c565b60405180910390fd5b600360008373ffffffffffffffffffffffffffffffffffffffff1673ffffffffffffffffffffffffffffffffffffffff168152602001908152602001600020549050919050565b60006006600084815260200190815260200160002060000160008373ffffffffffffffffffffffffffffffffffffffff1673ffffffffffffffffffffffffffffffffffffffff16815260200190815260200160002060009054906101000a900460ff16905092915050565b606060018054610b8690612afb565b80601f0160208091040260200160405190810160405280929190818152602001828054610bb290612afb565b8015610bff5780601f10610bd457610100808354040283529160200191610bff565b820191906000526020600020905b815481529060010190602001808311610be257829003601f168201915b5050505050905090565b6000801b81565b610c22610c1b610f76565b83836115d9565b5050565b600060076000838152602001908152602001600020549050919050565b610c54610c4e610f76565b83611037565b610c93576040517f08c379a0000000000000000000000000000000000000000000000000000000008152600401610c8a90612cc2565b60405180910390fd5b610c9f84848484611745565b50505050565b6060610cb082610f2b565b6000610cba6117a1565b90506000815111610cda5760405180602001604052806000815250610d05565b80610ce484611833565b604051602001610cf5929190613230565b6040516020818303038152906040525b915050919050565b7f9f2df0fed2c77648de5860a4cc508cd0818c85b8b8a1ab4ceeef8d981c8956a681565b610d3a82610852565b610d43816113c5565b610d4d83836114ba565b505050565b6000600560008473ffffffffffffffffffffffffffffffffffffffff1673ffffffffffffffffffffffffffffffffffffffff16815260200190815260200160002060008373ffffffffffffffffffffffffffffffffffffffff1673ffffffffffffffffffffffffffffffffffffffff16815260200190815260200160002060009054906101000a900460ff16905092915050565b610e177f9f2df0fed2c77648de5860a4cc508cd0818c85b8b8a1ab4ceeef8d981c8956a6610e12610f76565b610b0c565b610e56576040517f08c379a0000000000000000000000000000000000000000000000000000000008152600401610e4d906132b6565b60405180910390fd5b60006007600083815260200190815260200160002054601083901b179050600760008381526020019081526020016000206000815480929190610e9890613305565b9190505550610ea78382611901565b505050565b600181565b60007f7965db0b000000000000000000000000000000000000000000000000000000007bffffffffffffffffffffffffffffffffffffffffffffffffffffffff1916827bffffffffffffffffffffffffffffffffffffffffffffffffffffffff19161480610f245750610f238261191f565b5b9050919050565b610f3481611a01565b610f73576040517f08c379a0000000000000000000000000000000000000000000000000000000008152600401610f6a906130aa565b60405180910390fd5b50565b600033905090565b816004600083815260200190815260200160002060006101000a81548173ffffffffffffffffffffffffffffffffffffffff021916908373ffffffffffffffffffffffffffffffffffffffff160217905550808273ffffffffffffffffffffffffffffffffffffffff16610ff1836109bb565b73ffffffffffffffffffffffffffffffffffffffff167f8c5be1e5ebec7d5bd14f71427d1e84f3dd0314c0f7b2291e5b200ac8c7c3b92560405160405180910390a45050565b600080611043836109bb565b90508073ffffffffffffffffffffffffffffffffffffffff168473ffffffffffffffffffffffffffffffffffffffff16148061108557506110848185610d52565b5b806110c357508373ffffffffffffffffffffffffffffffffffffffff166110ab84610690565b73ffffffffffffffffffffffffffffffffffffffff16145b91505092915050565b8273ffffffffffffffffffffffffffffffffffffffff166110ec826109bb565b73ffffffffffffffffffffffffffffffffffffffff1614611142576040517f08c379a0000000000000000000000000000000000000000000000000000000008152600401611139906133bf565b60405180910390fd5b600073ffffffffffffffffffffffffffffffffffffffff168273ffffffffffffffffffffffffffffffffffffffff16036111b1576040517f08c379a00000000000000000000000000000000000000000000000000000000081526004016111a890613451565b60405180910390fd5b6111be8383836001611a42565b8273ffffffffffffffffffffffffffffffffffffffff166111de826109bb565b73ffffffffffffffffffffffffffffffffffffffff1614611234576040517f08c379a000000000000000000000000000000000000000000000000000000000815260040161122b906133bf565b60405180910390fd5b6004600082815260200190815260200160002060006101000a81549073ffffffffffffffffffffffffffffffffffffffff02191690556001600360008573ffffffffffffffffffffffffffffffffffffffff1673ffffffffffffffffffffffffffffffffffffffff168152602001908152602001600020600082825403925050819055506001600360008473ffffffffffffffffffffffffffffffffffffffff1673ffffffffffffffffffffffffffffffffffffffff16815260200190815260200160002060008282540192505081905550816002600083815260200190815260200160002060006101000a81548173ffffffffffffffffffffffffffffffffffffffff021916908373ffffffffffffffffffffffffffffffffffffffff160217905550808273ffffffffffffffffffffffffffffffffffffffff168473ffffffffffffffffffffffffffffffffffffffff167fddf252ad1be2c89b69c2b068fc378daa952ba7f163c4a11628f55a4df523b3ef60405160405180910390a46113c08383836001611a48565b505050565b6113d6816113d1610f76565b611a4e565b50565b6113e38282610b0c565b6114b65760016006600084815260200190815260200160002060000160008373ffffffffffffffffffffffffffffffffffffffff1673ffffffffffffffffffffffffffffffffffffffff16815260200190815260200160002060006101000a81548160ff02191690831515021790555061145b610f76565b73ffffffffffffffffffffffffffffffffffffffff168173ffffffffffffffffffffffffffffffffffffffff16837f2f8788117e7eff1d82e926ec794901d17c78024a50270940304540a733656f0d60405160405180910390a45b5050565b6114c48282610b0c565b156115985760006006600084815260200190815260200160002060000160008373ffffffffffffffffffffffffffffffffffffffff1673ffffffffffffffffffffffffffffffffffffffff16815260200190815260200160002060006101000a81548160ff02191690831515021790555061153d610f76565b73ffffffffffffffffffffffffffffffffffffffff168173ffffffffffffffffffffffffffffffffffffffff16837ff6391f5c32d9c69d2a47ea670b442974b53935d1edc7fd64eb21e047a839171b60405160405180910390a45b5050565b60006002600083815260200190815260200160002060009054906101000a900473ffffffffffffffffffffffffffffffffffffffff169050919050565b8173ffffffffffffffffffffffffffffffffffffffff168373ffffffffffffffffffffffffffffffffffffffff1603611647576040517f08c379a000000000000000000000000000000000000000000000000000000000815260040161163e906134bd565b60405180910390fd5b80600560008573ffffffffffffffffffffffffffffffffffffffff1673ffffffffffffffffffffffffffffffffffffffff16815260200190815260200160002060008473ffffffffffffffffffffffffffffffffffffffff1673ffffffffffffffffffffffffffffffffffffffff16815260200190815260200160002060006101000a81548160ff0219169083151502179055508173ffffffffffffffffffffffffffffffffffffffff168373ffffffffffffffffffffffffffffffffffffffff167f17307eab39ab6107e8899845ad3d59bd9653f200f220920489ca2b5937696c318360405161173891906123cf565b60405180910390a3505050565b6117508484846110cc565b61175c84848484611ad3565b61179b576040517f08c379a00000000000000000000000000000000000000000000000000000000081526004016117929061354f565b60405180910390fd5b50505050565b6060600880546117b090612afb565b80601f01602080910402602001604051908101604052809291908181526020018280546117dc90612afb565b80156118295780601f106117fe57610100808354040283529160200191611829565b820191906000526020600020905b81548152906001019060200180831161180c57829003601f168201915b5050505050905090565b60606000600161184284611c5a565b01905060008167ffffffffffffffff8111156118615761186061275b565b5b6040519080825280601f01601f1916602001820160405280156118935781602001600182028036833780820191505090505b509050600082602001820190505b6001156118f6578080600190039150507f3031323334353637383961626364656600000000000000000000000000000000600a86061a8153600a85816118ea576118e961356f565b5b049450600085036118a1575b819350505050919050565b61191b828260405180602001604052806000815250611dad565b5050565b60007f80ac58cd000000000000000000000000000000000000000000000000000000007bffffffffffffffffffffffffffffffffffffffffffffffffffffffff1916827bffffffffffffffffffffffffffffffffffffffffffffffffffffffff191614806119ea57507f5b5e139f000000000000000000000000000000000000000000000000000000007bffffffffffffffffffffffffffffffffffffffffffffffffffffffff1916827bffffffffffffffffffffffffffffffffffffffffffffffffffffffff1916145b806119fa57506119f982611e08565b5b9050919050565b60008073ffffffffffffffffffffffffffffffffffffffff16611a238361159c565b73ffffffffffffffffffffffffffffffffffffffff1614159050919050565b50505050565b50505050565b611a588282610b0c565b611acf57611a6581611e72565b611a738360001c6020611e9f565b604051602001611a84929190613636565b6040516020818303038152906040526040517f08c379a0000000000000000000000000000000000000000000000000000000008152600401611ac6919061247a565b60405180910390fd5b5050565b6000611af48473ffffffffffffffffffffffffffffffffffffffff166120db565b15611c4d578373ffffffffffffffffffffffffffffffffffffffff1663150b7a02611b1d610f76565b8786866040518563ffffffff1660e01b8152600401611b3f94939291906136c5565b6020604051808303816000875af1925050508015611b7b57506040513d601f19601f82011682018060405250810190611b789190613726565b60015b611bfd573d8060008114611bab576040519150601f19603f3d011682016040523d82523d6000602084013e611bb0565b606091505b506000815103611bf5576040517f08c379a0000000000000000000000000000000000000000000000000000000008152600401611bec9061354f565b60405180910390fd5b805181602001fd5b63150b7a0260e01b7bffffffffffffffffffffffffffffffffffffffffffffffffffffffff1916817bffffffffffffffffffffffffffffffffffffffffffffffffffffffff191614915050611c52565b600190505b949350505050565b600080600090507a184f03e93ff9f4daa797ed6e38ed64bf6a1f0100000000000000008310611cb8577a184f03e93ff9f4daa797ed6e38ed64bf6a1f0100000000000000008381611cae57611cad61356f565b5b0492506040810190505b6d04ee2d6d415b85acef81000000008310611cf5576d04ee2d6d415b85acef81000000008381611ceb57611cea61356f565b5b0492506020810190505b662386f26fc100008310611d2457662386f26fc100008381611d1a57611d1961356f565b5b0492506010810190505b6305f5e1008310611d4d576305f5e1008381611d4357611d4261356f565b5b0492506008810190505b6127108310611d72576127108381611d6857611d6761356f565b5b0492506004810190505b60648310611d955760648381611d8b57611d8a61356f565b5b0492506002810190505b600a8310611da4576001810190505b80915050919050565b611db783836120fe565b611dc46000848484611ad3565b611e03576040517f08c379a0000000000000000000000000000000000000000000000000000000008152600401611dfa9061354f565b60405180910390fd5b505050565b60007f01ffc9a7000000000000000000000000000000000000000000000000000000007bffffffffffffffffffffffffffffffffffffffffffffffffffffffff1916827bffffffffffffffffffffffffffffffffffffffffffffffffffffffff1916149050919050565b6060611e988273ffffffffffffffffffffffffffffffffffffffff16601460ff16611e9f565b9050919050565b606060006002836002611eb29190613753565b611ebc9190613795565b67ffffffffffffffff811115611ed557611ed461275b565b5b6040519080825280601f01601f191660200182016040528015611f075781602001600182028036833780820191505090505b5090507f300000000000000000000000000000000000000000000000000000000000000081600081518110611f3f57611f3e6137c9565b5b60200101907effffffffffffffffffffffffffffffffffffffffffffffffffffffffffffff1916908160001a9053507f780000000000000000000000000000000000000000000000000000000000000081600181518110611fa357611fa26137c9565b5b60200101907effffffffffffffffffffffffffffffffffffffffffffffffffffffffffffff1916908160001a90535060006001846002611fe39190613753565b611fed9190613795565b90505b600181111561208d577f3031323334353637383961626364656600000000000000000000000000000000600f86166010811061202f5761202e6137c9565b5b1a60f81b828281518110612046576120456137c9565b5b60200101907effffffffffffffffffffffffffffffffffffffffffffffffffffffffffffff1916908160001a905350600485901c945080612086906137f8565b9050611ff0565b50600084146120d1576040517f08c379a00000000000000000000000000000000000000000000000000000000081526004016120c89061386d565b60405180910390fd5b8091505092915050565b6000808273ffffffffffffffffffffffffffffffffffffffff163b119050919050565b600073ffffffffffffffffffffffffffffffffffffffff168273ffffffffffffffffffffffffffffffffffffffff160361216d576040517f08c379a0000000000000000000000000000000000000000000000000000000008152600401612164906138d9565b60405180910390fd5b61217681611a01565b156121b6576040517f08c379a00000000000000000000000000000000000000000000000000000000081526004016121ad90613945565b60405180910390fd5b6121c4600083836001611a42565b6121cd81611a01565b1561220d576040517f08c379a000000000000000000000000000000000000000000000000000000000815260040161220490613945565b60405180910390fd5b6001600360008473ffffffffffffffffffffffffffffffffffffffff1673ffffffffffffffffffffffffffffffffffffffff16815260200190815260200160002060008282540192505081905550816002600083815260200190815260200160002060006101000a81548173ffffffffffffffffffffffffffffffffffffffff021916908373ffffffffffffffffffffffffffffffffffffffff160217905550808273ffffffffffffffffffffffffffffffffffffffff16600073ffffffffffffffffffffffffffffffffffffffff167fddf252ad1be2c89b69c2b068fc378daa952ba7f163c4a11628f55a4df523b3ef60405160405180910390a4612317600083836001611a48565b5050565b6000604051905090565b600080fd5b600080fd5b60007fffffffff0000000000000000000000000000000000000000000000000000000082169050919050565b6123648161232f565b811461236f57600080fd5b50565b6000813590506123818161235b565b92915050565b60006020828403121561239d5761239c612325565b5b60006123ab84828501612372565b91505092915050565b60008115159050919050565b6123c9816123b4565b82525050565b60006020820190506123e460008301846123c0565b92915050565b600081519050919050565b600082825260208201905092915050565b60005b83811015612424578082015181840152602081019050612409565b60008484015250505050565b6000601f19601f8301169050919050565b600061244c826123ea565b61245681856123f5565b9350612466818560208601612406565b61246f81612430565b840191505092915050565b600060208201905081810360008301526124948184612441565b905092915050565b6000819050919050565b6124af8161249c565b81146124ba57600080fd5b50565b6000813590506124cc816124a6565b92915050565b6000602082840312156124e8576124e7612325565b5b60006124f6848285016124bd565b91505092915050565b600073ffffffffffffffffffffffffffffffffffffffff82169050919050565b600061252a826124ff565b9050919050565b61253a8161251f565b82525050565b60006020820190506125556000830184612531565b92915050565b6125648161251f565b811461256f57600080fd5b50565b6000813590506125818161255b565b92915050565b6000806040838503121561259e5761259d612325565b5b60006125ac85828601612572565b92505060206125bd858286016124bd565b9150509250929050565b6125d08161249c565b82525050565b60006020820190506125eb60008301846125c7565b92915050565b60008060006060848603121561260a57612609612325565b5b600061261886828701612572565b935050602061262986828701612572565b925050604061263a868287016124bd565b9150509250925092565b6000819050919050565b61265781612644565b811461266257600080fd5b50565b6000813590506126748161264e565b92915050565b6000602082840312156126905761268f612325565b5b600061269e84828501612665565b91505092915050565b6126b081612644565b82525050565b60006020820190506126cb60008301846126a7565b92915050565b600080604083850312156126e8576126e7612325565b5b60006126f685828601612665565b925050602061270785828601612572565b9150509250929050565b6000806040838503121561272857612727612325565b5b6000612736858286016124bd565b9250506020612747858286016124bd565b9150509250929050565b600080fd5b600080fd5b7f4e487b7100000000000000000000000000000000000000000000000000000000600052604160045260246000fd5b61279382612430565b810181811067ffffffffffffffff821117156127b2576127b161275b565b5b80604052505050565b60006127c561231b565b90506127d1828261278a565b919050565b600067ffffffffffffffff8211156127f1576127f061275b565b5b6127fa82612430565b9050602081019050919050565b82818337600083830152505050565b6000612829612824846127d6565b6127bb565b90508281526020810184848401111561284557612844612756565b5b612850848285612807565b509392505050565b600082601f83011261286d5761286c612751565b5b813561287d848260208601612816565b91505092915050565b60006020828403121561289c5761289b612325565b5b600082013567ffffffffffffffff8111156128ba576128b961232a565b5b6128c684828501612858565b91505092915050565b6000602082840312156128e5576128e4612325565b5b60006128f384828501612572565b91505092915050565b612905816123b4565b811461291057600080fd5b50565b600081359050612922816128fc565b92915050565b6000806040838503121561293f5761293e612325565b5b600061294d85828601612572565b925050602061295e85828601612913565b9150509250929050565b600067ffffffffffffffff8211156129835761298261275b565b5b61298c82612430565b9050602081019050919050565b60006129ac6129a784612968565b6127bb565b9050828152602081018484840111156129c8576129c7612756565b5b6129d3848285612807565b509392505050565b600082601f8301126129f0576129ef612751565b5b8135612a00848260208601612999565b91505092915050565b60008060008060808587031215612a2357612a22612325565b5b6000612a3187828801612572565b9450506020612a4287828801612572565b9350506040612a53878288016124bd565b925050606085013567ffffffffffffffff811115612a7457612a7361232a565b5b612a80878288016129db565b91505092959194509250565b60008060408385031215612aa357612aa2612325565b5b6000612ab185828601612572565b9250506020612ac285828601612572565b9150509250929050565b7f4e487b7100000000000000000000000000000000000000000000000000000000600052602260045260246000fd5b60006002820490506001821680612b1357607f821691505b602082108103612b2657612b25612acc565b5b50919050565b7f4552433732313a20617070726f76616c20746f2063757272656e74206f776e6560008201527f7200000000000000000000000000000000000000000000000000000000000000602082015250565b6000612b886021836123f5565b9150612b9382612b2c565b604082019050919050565b60006020820190508181036000830152612bb781612b7b565b9050919050565b7f4552433732313a20617070726f76652063616c6c6572206973206e6f7420746f60008201527f6b656e206f776e6572206f7220617070726f76656420666f7220616c6c000000602082015250565b6000612c1a603d836123f5565b9150612c2582612bbe565b604082019050919050565b60006020820190508181036000830152612c4981612c0d565b9050919050565b7f4552433732313a2063616c6c6572206973206e6f7420746f6b656e206f776e6560008201527f72206f7220617070726f76656400000000000000000000000000000000000000602082015250565b6000612cac602d836123f5565b9150612cb782612c50565b604082019050919050565b60006020820190508181036000830152612cdb81612c9f565b9050919050565b7f416363657373436f6e74726f6c3a2063616e206f6e6c792072656e6f756e636560008201527f20726f6c657320666f722073656c660000000000000000000000000000000000602082015250565b6000612d3e602f836123f5565b9150612d4982612ce2565b604082019050919050565b60006020820190508181036000830152612d6d81612d31565b9050919050565b7f6e6565642044454641554c545f41444d494e5f524f4c45000000000000000000600082015250565b6000612daa6017836123f5565b9150612db582612d74565b602082019050919050565b60006020820190508181036000830152612dd981612d9d565b9050919050565b60008190508160005260206000209050919050565b60006020601f8301049050919050565b600082821b905092915050565b600060088302612e427fffffffffffffffffffffffffffffffffffffffffffffffffffffffffffffffff82612e05565b612e4c8683612e05565b95508019841693508086168417925050509392505050565b6000819050919050565b6000612e89612e84612e7f8461249c565b612e64565b61249c565b9050919050565b6000819050919050565b612ea383612e6e565b612eb7612eaf82612e90565b848454612e12565b825550505050565b600090565b612ecc612ebf565b612ed7818484612e9a565b505050565b5b81811015612efb57612ef0600082612ec4565b600181019050612edd565b5050565b601f821115612f4057612f1181612de0565b612f1a84612df5565b81016020851015612f29578190505b612f3d612f3585612df5565b830182612edc565b50505b505050565b600082821c905092915050565b6000612f6360001984600802612f45565b1980831691505092915050565b6000612f7c8383612f52565b9150826002028217905092915050565b612f95826123ea565b67ffffffffffffffff811115612fae57612fad61275b565b5b612fb88254612afb565b612fc3828285612eff565b600060209050601f831160018114612ff65760008415612fe4578287015190505b612fee8582612f70565b865550613056565b601f19841661300486612de0565b60005b8281101561302c57848901518255600182019150602085019450602081019050613007565b868310156130495784890151613045601f891682612f52565b8355505b6001600288020188555050505b505050505050565b7f4552433732313a20696e76616c696420746f6b656e2049440000000000000000600082015250565b60006130946018836123f5565b915061309f8261305e565b602082019050919050565b600060208201905081810360008301526130c381613087565b9050919050565b7f4552433732313a2061646472657373207a65726f206973206e6f74206120766160008201527f6c6964206f776e65720000000000000000000000000000000000000000000000602082015250565b60006131266029836123f5565b9150613131826130ca565b604082019050919050565b6000602082019050818103600083015261315581613119565b9050919050565b600081905092915050565b6000613172826123ea565b61317c818561315c565b935061318c818560208601612406565b80840191505092915050565b7f2f00000000000000000000000000000000000000000000000000000000000000600082015250565b60006131ce60018361315c565b91506131d982613198565b600182019050919050565b7f2e6a736f6e000000000000000000000000000000000000000000000000000000600082015250565b600061321a60058361315c565b9150613225826131e4565b600582019050919050565b600061323c8285613167565b9150613247826131c1565b91506132538284613167565b915061325e8261320d565b91508190509392505050565b7f6e656564204d494e5445525f524f4c4500000000000000000000000000000000600082015250565b60006132a06010836123f5565b91506132ab8261326a565b602082019050919050565b600060208201905081810360008301526132cf81613293565b9050919050565b7f4e487b7100000000000000000000000000000000000000000000000000000000600052601160045260246000fd5b60006133108261249c565b91507fffffffffffffffffffffffffffffffffffffffffffffffffffffffffffffffff8203613342576133416132d6565b5b600182019050919050565b7f4552433732313a207472616e736665722066726f6d20696e636f72726563742060008201527f6f776e6572000000000000000000000000000000000000000000000000000000602082015250565b60006133a96025836123f5565b91506133b48261334d565b604082019050919050565b600060208201905081810360008301526133d88161339c565b9050919050565b7f4552433732313a207472616e7366657220746f20746865207a65726f2061646460008201527f7265737300000000000000000000000000000000000000000000000000000000602082015250565b600061343b6024836123f5565b9150613446826133df565b604082019050919050565b6000602082019050818103600083015261346a8161342e565b9050919050565b7f4552433732313a20617070726f766520746f2063616c6c657200000000000000600082015250565b60006134a76019836123f5565b91506134b282613471565b602082019050919050565b600060208201905081810360008301526134d68161349a565b9050919050565b7f4552433732313a207472616e7366657220746f206e6f6e20455243373231526560008201527f63656976657220696d706c656d656e7465720000000000000000000000000000602082015250565b60006135396032836123f5565b9150613544826134dd565b604082019050919050565b600060208201905081810360008301526135688161352c565b9050919050565b7f4e487b7100000000000000000000000000000000000000000000000000000000600052601260045260246000fd5b7f416363657373436f6e74726f6c3a206163636f756e7420000000000000000000600082015250565b60006135d460178361315c565b91506135df8261359e565b601782019050919050565b7f206973206d697373696e6720726f6c6520000000000000000000000000000000600082015250565b600061362060118361315c565b915061362b826135ea565b601182019050919050565b6000613641826135c7565b915061364d8285613167565b915061365882613613565b91506136648284613167565b91508190509392505050565b600081519050919050565b600082825260208201905092915050565b600061369782613670565b6136a1818561367b565b93506136b1818560208601612406565b6136ba81612430565b840191505092915050565b60006080820190506136da6000830187612531565b6136e76020830186612531565b6136f460408301856125c7565b8181036060830152613706818461368c565b905095945050505050565b6000815190506137208161235b565b92915050565b60006020828403121561373c5761373b612325565b5b600061374a84828501613711565b91505092915050565b600061375e8261249c565b91506137698361249c565b92508282026137778161249c565b9150828204841483151761378e5761378d6132d6565b5b5092915050565b60006137a08261249c565b91506137ab8361249c565b92508282019050808211156137c3576137c26132d6565b5b92915050565b7f4e487b7100000000000000000000000000000000000000000000000000000000600052603260045260246000fd5b60006138038261249c565b915060008203613816576138156132d6565b5b600182039050919050565b7f537472696e67733a20686578206c656e67746820696e73756666696369656e74600082015250565b60006138576020836123f5565b915061386282613821565b602082019050919050565b600060208201905081810360008301526138868161384a565b9050919050565b7f4552433732313a206d696e7420746f20746865207a65726f2061646472657373600082015250565b60006138c36020836123f5565b91506138ce8261388d565b602082019050919050565b600060208201905081810360008301526138f2816138b6565b9050919050565b7f4552433732313a20746f6b656e20616c7265616479206d696e74656400000000600082015250565b600061392f601c836123f5565b915061393a826138f9565b602082019050919050565b6000602082019050818103600083015261395e81613922565b905091905056fea264697066735822122087d0d799d2397741a609595be3ff64a9d40d0c08227c3c1a27f4ae11586a4ddb64736f6c63430008120033",
  "devdoc": {
    "events": {
      "Approval(address,address,uint256)": {
        "details": "Emitted when `owner` enables `approved` to manage the `tokenId` token."
      },
      "ApprovalForAll(address,address,bool)": {
        "details": "Emitted when `owner` enables or disables (`approved`) `operator` to manage all of its assets."
      },
      "RoleAdminChanged(bytes32,bytes32,bytes32)": {
        "details": "Emitted when `newAdminRole` is set as ``role``'s admin role, replacing `previousAdminRole` `DEFAULT_ADMIN_ROLE` is the starting admin for all roles, despite {RoleAdminChanged} not being emitted signaling this. _Available since v3.1._"
      },
      "RoleGranted(bytes32,address,address)": {
        "details": "Emitted when `account` is granted `role`. `sender` is the account that originated the contract call, an admin role bearer except when using {AccessControl-_setupRole}."
      },
      "RoleRevoked(bytes32,address,address)": {
        "details": "Emitted when `account` is revoked `role`. `sender` is the account that originated the contract call:   - if using `revokeRole`, it is the admin role bearer   - if using `renounceRole`, it is the role bearer (i.e. `account`)"
      },
      "Transfer(address,address,uint256)": {
        "details": "Emitted when `tokenId` token is transferred from `from` to `to`."
      }
    },
    "kind": "dev",
    "methods": {
      "approve(address,uint256)": {
        "details": "See {IERC721-approve}."
      },
      "balanceOf(address)": {
        "details": "See {IERC721-balanceOf}."
      },
      "getApproved(uint256)": {
        "details": "See {IERC721-getApproved}."
      },
      "getRoleAdmin(bytes32)": {
        "details": "Returns the admin role that controls `role`. See {grantRole} and {revokeRole}. To change a role's admin, use {_setRoleAdmin}."
      },
      "grantRole(bytes32,address)": {
        "details": "Grants `role` to `account`. If `account` had not been already granted `role`, emits a {RoleGranted} event. Requirements: - the caller must have ``role``'s admin role. May emit a {RoleGranted} event."
      },
      "hasRole(bytes32,address)": {
        "details": "Returns `true` if `account` has been granted `role`."
      },
      "isApprovedForAll(address,address)": {
        "details": "See {IERC721-isApprovedForAll}."
      },
      "name()": {
        "details": "See {IERC721Metadata-name}."
      },
      "ownerOf(uint256)": {
        "details": "See {IERC721-ownerOf}."
      },
      "renounceRole(bytes32,address)": {
        "details": "Revokes `role` from the calling account. Roles are often managed via {grantRole} and {revokeRole}: this function's purpose is to provide a mechanism for accounts to lose their privileges if they are compromised (such as when a trusted device is misplaced). If the calling account had been revoked `role`, emits a {RoleRevoked} event. Requirements: - the caller must be `account`. May emit a {RoleRevoked} event."
      },
      "revokeRole(bytes32,address)": {
        "details": "Revokes `role` from `account`. If `account` had been granted `role`, emits a {RoleRevoked} event. Requirements: - the caller must have ``role``'s admin role. May emit a {RoleRevoked} event."
      },
      "safeTransferFrom(address,address,uint256)": {
        "details": "See {IERC721-safeTransferFrom}."
      },
      "safeTransferFrom(address,address,uint256,bytes)": {
        "details": "See {IERC721-safeTransferFrom}."
      },
      "setApprovalForAll(address,bool)": {
        "details": "See {IERC721-setApprovalForAll}."
      },
      "symbol()": {
        "details": "See {IERC721Metadata-symbol}."
      },
      "tokenURI(uint256)": {
        "details": "See {IERC721Metadata-tokenURI}."
      },
      "transferFrom(address,address,uint256)": {
        "details": "See {IERC721-transferFrom}."
      }
    },
    "version": 1
  },
  "userdoc": {
    "kind": "user",
    "methods": {},
    "version": 1
  },
  "storageLayout": {
    "storage": [
      {
        "astId": 1104,
        "contract": "contracts/ScaleyValleyCollection.sol:ScaleyValleyCollection",
        "label": "_name",
        "offset": 0,
        "slot": "0",
        "type": "t_string_storage"
      },
      {
        "astId": 1106,
        "contract": "contracts/ScaleyValleyCollection.sol:ScaleyValleyCollection",
        "label": "_symbol",
        "offset": 0,
        "slot": "1",
        "type": "t_string_storage"
      },
      {
        "astId": 1110,
        "contract": "contracts/ScaleyValleyCollection.sol:ScaleyValleyCollection",
        "label": "_owners",
        "offset": 0,
        "slot": "2",
        "type": "t_mapping(t_uint256,t_address)"
      },
      {
        "astId": 1114,
        "contract": "contracts/ScaleyValleyCollection.sol:ScaleyValleyCollection",
        "label": "_balances",
        "offset": 0,
        "slot": "3",
        "type": "t_mapping(t_address,t_uint256)"
      },
      {
        "astId": 1118,
        "contract": "contracts/ScaleyValleyCollection.sol:ScaleyValleyCollection",
        "label": "_tokenApprovals",
        "offset": 0,
        "slot": "4",
        "type": "t_mapping(t_uint256,t_address)"
      },
      {
        "astId": 1124,
        "contract": "contracts/ScaleyValleyCollection.sol:ScaleyValleyCollection",
        "label": "_operatorApprovals",
        "offset": 0,
        "slot": "5",
        "type": "t_mapping(t_address,t_mapping(t_address,t_bool))"
      },
      {
        "astId": 24,
        "contract": "contracts/ScaleyValleyCollection.sol:ScaleyValleyCollection",
        "label": "_roles",
        "offset": 0,
        "slot": "6",
        "type": "t_mapping(t_bytes32,t_struct(RoleData)19_storage)"
      },
      {
        "astId": 3731,
        "contract": "contracts/ScaleyValleyCollection.sol:ScaleyValleyCollection",
        "label": "kindSupply",
        "offset": 0,
        "slot": "7",
        "type": "t_mapping(t_uint256,t_uint256)"
      },
      {
        "astId": 3750,
        "contract": "contracts/ScaleyValleyCollection.sol:ScaleyValleyCollection",
        "label": "_baseUri",
        "offset": 0,
        "slot": "8",
        "type": "t_string_storage"
      }
    ],
    "types": {
      "t_address": {
        "encoding": "inplace",
        "label": "address",
        "numberOfBytes": "20"
      },
      "t_bool": {
        "encoding": "inplace",
        "label": "bool",
        "numberOfBytes": "1"
      },
      "t_bytes32": {
        "encoding": "inplace",
        "label": "bytes32",
        "numberOfBytes": "32"
      },
      "t_mapping(t_address,t_bool)": {
        "encoding": "mapping",
        "key": "t_address",
        "label": "mapping(address => bool)",
        "numberOfBytes": "32",
        "value": "t_bool"
      },
      "t_mapping(t_address,t_mapping(t_address,t_bool))": {
        "encoding": "mapping",
        "key": "t_address",
        "label": "mapping(address => mapping(address => bool))",
        "numberOfBytes": "32",
        "value": "t_mapping(t_address,t_bool)"
      },
      "t_mapping(t_address,t_uint256)": {
        "encoding": "mapping",
        "key": "t_address",
        "label": "mapping(address => uint256)",
        "numberOfBytes": "32",
        "value": "t_uint256"
      },
      "t_mapping(t_bytes32,t_struct(RoleData)19_storage)": {
        "encoding": "mapping",
        "key": "t_bytes32",
        "label": "mapping(bytes32 => struct AccessControl.RoleData)",
        "numberOfBytes": "32",
        "value": "t_struct(RoleData)19_storage"
      },
      "t_mapping(t_uint256,t_address)": {
        "encoding": "mapping",
        "key": "t_uint256",
        "label": "mapping(uint256 => address)",
        "numberOfBytes": "32",
        "value": "t_address"
      },
      "t_mapping(t_uint256,t_uint256)": {
        "encoding": "mapping",
        "key": "t_uint256",
        "label": "mapping(uint256 => uint256)",
        "numberOfBytes": "32",
        "value": "t_uint256"
      },
      "t_string_storage": {
        "encoding": "bytes",
        "label": "string",
        "numberOfBytes": "32"
      },
      "t_struct(RoleData)19_storage": {
        "encoding": "inplace",
        "label": "struct AccessControl.RoleData",
        "members": [
          {
            "astId": 16,
            "contract": "contracts/ScaleyValleyCollection.sol:ScaleyValleyCollection",
            "label": "members",
            "offset": 0,
            "slot": "0",
            "type": "t_mapping(t_address,t_bool)"
          },
          {
            "astId": 18,
            "contract": "contracts/ScaleyValleyCollection.sol:ScaleyValleyCollection",
            "label": "adminRole",
            "offset": 0,
            "slot": "1",
            "type": "t_bytes32"
          }
        ],
        "numberOfBytes": "64"
      },
      "t_uint256": {
        "encoding": "inplace",
        "label": "uint256",
        "numberOfBytes": "32"
      }
    }
  }
}